:020000040800F2
:100000007004002001010008BB110008CF10000897
:10001000B9110008990100087915000800000000D6
:10002000000000000000000000000000D3130008E2
:100030009B01000800000000BD110008D513000856
:100040001B0100081B0100081B0100081B01000820
:100050001B0100081B0100081B0100081B01000810
:100060001B0100081B0100081B0100081B01000800
:100070001B0100081B0100081B0100081B010008F0
:100080001B0100081B0100081B0100081B010008E0
:100090001B0100081B0100081B0100081B010008D0
:1000A0001B0100081B0100081B0100081B010008C0
:1000B0001B0100081B0100081B0100081B010008B0
:1000C0001B0100081B0100081B0100081B010008A0
:1000D0001B0100081B0100081B0100081B01000890
:1000E0001B0100081B0100081B010008DFF80CD0F1
:1000F00000F040F8004800473D1900087004002057
:100100000648804706480047FEE7FEE7FEE7FEE7B1
:10011000FEE7FEE7FEE7FEE7FEE7FEE7591400080C
:10012000ED000008D2B201E000F8012B491EFBD21D
:1001300070470022F6E710B513460A4604461946F2
:10014000FFF7F0FF204610BD30B50B4601460020FA
:100150002022012409E021FA02F59D4205D303FA89
:1001600002F5491B04FA02F52844151EA2F101020A
:10017000F1DC30BD064C074D06E0E06840F00103BD
:1001800094E8070098471034AC42F6D3FFF7B2FF6B
:100190007C1A00089C1A0008FEE7704772B6FEE75A
:1001A00070B5044600F0FEF80546601C02D0044815
:1001B0000078044400F0F6F8401BA042FAD370BD6A
:1001C000000000202DE9F84FDFF8B891002409F174
:1001D000040A0AF1040B23460F270BF1040EC9E0B1
:1001E0000125A5402A40AA427DD1674ED1F804C01E
:1001F000ACEB0608B44532D014DCBCF1030F3AD0A6
:1002000009DCBCF1000F2AD0BCF1010F1CD0BCF1FD
:10021000020F31D11DE0BCF1110F17D0BCF1120F4C
:100220002AD119E0B8F5881F19D006DCB8F5803F4F
:1002300015D0B8F5801F1FD111E0B8F5001F0ED002
:10024000B8F5041F18D10AE0CB6815E0CB681B1D78
:1002500012E0CB6808330FE0CB680C330CE08B68FE
:100260002BB1012B4FF0080303D0456104E00423B8
:1002700002E0056100E00023FF2A01D8064601E004
:1002800000F104064FEA840501D9A5F12005D6F84E
:10029000008007FA05FC28EA0C0803FA05F548EA8D
:1002A0000508C6F800804D68ED0062D5374DAE698F
:1002B00046F00106AE61AD6924F0030605F00105C4
:1002C0000095334D06EB050CDCF80850A607360FF9
:1002D00007FA06F825EA0805DFF8B880404503D19B
:1002E0004FF0000817E044E0DFF8AC80404502D151
:1002F0004FF001080FE0DFF8A480404502D14FF035
:10030000020808E0DFF89880404502D14FF003086A
:1003100001E04FF0040808FA06F848EA0508CCF8AE
:1003200008804D68D9F80060ED034D4601D51643AD
:1003300000E096432E604D68DAF80060AD03554644
:1003400001D5164300E096432E604D68DBF800604F
:10035000ED025D4601D5164300E096432E604D68E0
:10036000DEF80060AD02754601D5164300E0964305
:100370002E60641C0D682A46E5407FF431AFBDE86D
:10038000F88F00000004014000001110001002402E
:100390000000014000080140000C01400010014035
:1003A00000140140014880687047000000000020F0
:1003B0000248816802781144816070470000002083
:1003C000074810B5016841F010010160032000F0FA
:1003D00067F80F2000F006F800F024F8002010BDA8
:1003E0000020024070B50D4D04464FF47A71287814
:1003F000B1FBF0F00A490968B1FBF0F000F091FDA3
:1004000048B9102C07D200222146501E00F028F8CF
:1004100000206C6070BD012070BD00000000002055
:100420000C0000200C4808B5816941F00101816190
:10043000816901F001010091C16941F08051C16100
:10044000C06900F0805000900448416821F0E061EC
:1004500041F08061416008BD001002400000014091
:10046000F0B40E4B1B680C46C3F30223C3F107051F
:10047000042D00D90425191D072901D2002300E00D
:10048000DB1E012606FA05F1491E214099409E40D7
:10049000761E16403143F0BC01F080B80CED00E050
:1004A000064900F0070208684FF6FF03184040EACB
:1004B0000220034A10430860704700000CED00E082
:1004C0000000FA05014901200862704700000E4251
:1004D00010B529A401461DCC86B08DE81D002AA0C8
:1004E0002A4C006804900020012923D002293AD028
:1004F00010291DD161682268D20119D5C1F3834248
:10050000C9031DF8020009D5616804AAC1F340417E
:10051000515C1F4AB2FBF1F1484301E01D494843D9
:100520006168490204D440005FF00301B0FBF1F0C0
:1005300006B010BD226AC2F30121012903D192073E
:1005400001D5C803F4E7022905D1626A920702D5F2
:1005500049F64040ECE70329EAD121688903E7D551
:100560004FF22440E4E700F033F96168C1F38131D0
:10057000491C4900DAE700000203040506070809E0
:100580000A0B0C0D0E0F10100102000000100240AB
:1005900000127A0000093D002DE9F8430546007875
:1005A000354CC00754D0E0690026C00008D4E0698B
:1005B00040F08050E061E069012600F0805000903A
:1005C0002E480168C90512D40168804641F4807143
:1005D0000160FFF7E7FE074605E000BFFFF7E2FE18
:1005E000C01B642823D8D8F80000C005F6D5206ABF
:1005F00010F4407021D0A98801F4407181421CD0D0
:10060000206A1F49012220F440700A6000220A601B
:100610002062C00711D0FFF7C5FE074641F28838B7
:1006200008E000BFFFF7BEFEC11B414502D9032011
:10063000BDE8F883206A8007F4D5206A696820F451
:100640004070084320621EB1E06920F08050E061F4
:100650002878800705D56068A96820F440400843E1
:1006600060602878C00605D56068E96820F48000DD
:10067000084360600020DBE700100240007000408B
:10068000400442422DE9F0470F46050061D0434E39
:10069000306800F00700B84209D2306820F0070047
:1006A00038433060306800F00700B84251D1286804
:1006B0003B4C810712D5400703D5606840F4E060E9
:1006C00060602878000703D5606840F4605060607F
:1006D0006068A96820F0F000084360602878C007CF
:1006E00028D06868012810D02168022810D0890716
:1006F00000292EDA616821F0030101436160FFF7F0
:1007000051FE804641F288390DE021688903EFE708
:100710008901EDE7FFF746FEA0EB0801494502D944
:100720000320BDE8F0876068696800F00C00B0EB5A
:10073000810FEFD1306800F00700B8420BD9306864
:1007400020F0070038433060306800F00700B842FE
:1007500001D00120E5E72878400705D56068E96801
:1007600020F4E060084360602878000706D56068E0
:10077000296920F4605040EAC100606000F038F858
:100780006168084AC1F30311515CC840064908601A
:1007900006480068FFF726FE0020C2E7002002405E
:1007A00000100240641A00080C0000200400002021
:1007B0000448054900684968044AC1F30221515CB4
:1007C000C84070470C00002000100240741A000856
:1007D0000448054900684968044AC1F3C221515CD4
:1007E000C84070470C00002000100240741A000836
:1007F00012A185B00FC98DE80F0014A0144A00683B
:1008000004905168134801F00C03042B10D0082BFE
:100810000ED1C1F38343C9031DF803000AD5516803
:1008200004AAC1F34041515C0A4A5043B0FBF1F0C5
:1008300005B0704708494843FAE700000203040581
:10084000060708090A0B0C0D0E0F1010010200001C
:100850000010024000127A0000093D002DE9F84F17
:10086000040070D02078C04DC00749D06868C0F33C
:100870008100012807D06868C0F38100022809D1EF
:100880006868C00306D52868800339D560680028E9
:10089000E7D035E06068B0F5803F0BD010B1B0F51F
:1008A000A02F11D0286820F480302860286820F418
:1008B000802002E0286840F480302860606890B1B1
:1008C000FFF770FD06460AE0286840F480202860A3
:1008D000F0E700BFFFF766FD801B642873D8286827
:1008E0008003F7D50CE0FFF75DFD064605E000BF8D
:1008F000FFF758FD801B6428F0D828688003F7D4E0
:1009000020789A4E80074FF001094FF0000839D542
:10091000686810F00C0F07D06868C0F381000228E7
:1009200009D16868C00306D42868800714D52069F7
:10093000012808D110E02069B0B1C6F80090FFF797
:1009400031FD074605E00AE1FFF72CFDC01B022838
:10095000C4D828688007F7D52868616920F0F800B6
:1009600040EAC10028600DE0C6F80080FFF71AFDDC
:10097000074604E0FFF716FDC01B022823D82868AD
:100980008007F7D4207800072CD57948A169D9B120
:10099000C0F80090FFF706FD074604E0FFF702FDF0
:1009A000C01B02280FD8686A8007F7D571484FF43A
:1009B000FA510068B0FBF1F0009000BF0098411EB2
:1009C0000091FAD20EE080E0C0F80080FFF7EAFC68
:1009D000074604E0FFF7E6FCC01B022875D8686AEA
:1009E0008007F7D42078400760D5E8690027C00069
:1009F00008D4E86940F08050E861E869012700F018
:100A0000805000905C480168C90513D40168834692
:100A100041F480710160FFF7C5FC824606E000BF2B
:100A2000FFF7C0FCA0EB0A0064284ED8DBF80000FA
:100A3000C005F5D5E06801280AD008B1052813D013
:100A4000286A20F001002862286A20F0040002E0F1
:100A5000286A40F001002862E06841F2883B98B1C2
:100A6000FFF7A0FC82460BE0286A40F004002862F1
:100A7000EEE700BFFFF796FCA0EB0A0159455AD8F4
:100A8000286A8007F6D50CE0FFF78CFC824605E06B
:100A9000FFF788FCA0EB0A0159454CD8286A80076B
:100AA000F6D41FB1E86920F08050E861E06988B3AE
:100AB0006968C1F38101022944D00228C6F8608028
:100AC00004D0FFF76FFC044638E034E0FFF76AFC1F
:100AD000074604E0FFF766FCC01B02282BD82868F5
:100AE0008001F7D4206AB0F5803F05D16868A1681D
:100AF00020F4003008436860D4E9080108436968BD
:100B000021F4741108436860C6F86090FFF74AFC4E
:100B1000044606E025E000BFFFF744FC001B022866
:100B200009D828688001F7D51BE000BFFFF73AFC21
:100B3000001B022802D90320BDE8F88F2868800135
:100B4000F4D40EE00128F7D06868226A00F48031FE
:100B5000914204D1616A00F47010884201D00120F2
:100B6000EAE70020E8E700000010024000004242EF
:100B7000800442420C00002000700040F8B50500DF
:100B80004FF0000016460C46009006D02CB1002213
:100B90006946284600F019F808B10120F8BD287B05
:100BA0002070E87BE070697B6170A97BA17056B111
:100BB00000F00EFBE070607800F00AFB6070A07837
:100BC00000F006FBA0700020F8BD2DE9F04791462B
:100BD0000C465FEA00084AD084B3D8F800004068A9
:100BE000400744D4404600F091FB4FF46162054653
:100BF000B0FBF2F1B0FBF2F302FB13503C23B0FB6D
:100C0000F3F0B5FBF2F6607002FB1650B0FBF3F2A6
:100C100003FB1200A070182931D31820B1FBF0F7A4
:100C2000B1FBF0F200FB12102070404600F067FBB1
:100C3000411C04D0A84202D9461B02E017E04FF045
:100C4000FF36A7EB071000EB4000C0EB001005EBF0
:100C5000C0152946404600F0A8FB40B9701C01D0E1
:100C6000711900E03146404600F08BFB10B10120C5
:100C7000BDE8F0873946404600F0B5FA00E0217043
:100C8000B9F1000F0BD0207800F0A2FA2070607844
:100C900000F09EFA6070A07800F09AFAA070002030
:100CA000E6E7000070B5040003D0607C002610B1B8
:100CB00005E0012070BD2674204600F043F80220B4
:100CC0006074204600F010F9042578BB204600F03F
:100CD000E1FA58BB2068416821F007014160A06833
:100CE00020B11748016821F0010101601448001F7C
:100CF0000168A26821F46071114301606068411CC1
:100D000004D10120FFF7E4FB80B1401E21688A680E
:100D100022F00F0242EA10428A602168CA6860F33A
:100D20000F02CA60204600F0CFFA08B16574C0E730
:100D3000E67301206073A0736074002070BD000032
:100D4000306C004008B50068084988420DD1FFF7B3
:100D5000B9FB0748C16941F00061C161C06905493B
:100D600000F0006000900120086008BD00280040ED
:100D7000001002403C0442422DE9F0410D460400BF
:100D80003BD0C5B3207C01283AD04FF0010884F84D
:100D9000108002206074E87872B300F010FAE073FB
:100DA000687800F00CFA6073A87800F008FAA07375
:100DB000C2B2617BE07B00F0B9FA20732870204654
:100DC00000F0A4FA4FF46161B0FBF1F1002518299D
:100DD0002DD91822B1FBF2F1A1EB011101EB410178
:100DE000C1EB011100EBC1163146204600F0DDFADF
:100DF0000427C8B90BE000E004E00120BDE8F08161
:100E00000220FBE7E07368786073A878CFE720469C
:100E100000F075FA411C0AD0B04208D206490144DC
:100E2000204600F0AEFA10B167742574E5E784F847
:100E3000118025740020E1E7805101002DE9F04187
:100E40000D46040024D01DB3207C012823D04FF090
:100E5000010884F81080022060742878EAB100F05C
:100E6000AEF94FF4616100FB01F6687800F0A7F974
:100E7000C0EB001006EB8006A87800F0A0F935184A
:100E80002946204600F091FA0026042710BB0FE007
:100E90000120BDE8F0810220FBE74FF46161484387
:100EA0006978C1EB011100EB8100A9784518E7E7EB
:100EB0002068416821F005014160204600F01FFADA
:100EC000411C0AD0A84208D206490144204600F03D
:100ED00058FA10B167742674DAE784F81180267422
:100EE0000020D6E78051010070B504000AD02068C8
:100EF000416821F008014160FFF754FA05464FF4BC
:100F00007A7608E0012070BDFFF74CFA401BB04232
:100F100001D9032070BD206840680007F4D5002087
:100F200070BD10B5401EB0F1807F01D3012010BD0F
:100F30004FF0E02460610F21601700F02FFB0020CC
:100F4000A06107202061002010BD70B5040004D00E
:100F500094F83D00002510B106E0012070BD84F832
:100F60003C50204600F022F8242084F83D00206800
:100F7000C16821F40051C160204600F06FFA20687A
:100F8000016921F4904101612068416921F02A0141
:100F900041612068C16841F40051C160256420208E
:100FA00084F83D0084F83E00002070BD30B585B067
:100FB0000024009401940294039400681449884228
:100FC00024D11448816941F480418161816901F42F
:100FD00080410491816941F00401816180690E4D75
:100FE00000F0040004904FF4007000900220019083
:100FF0000320039069462846FFF7E4F82815CDE959
:101000000004694628460294FFF7DCF805B030BDBD
:101010000038014000100240000801402DE9F8436B
:10102000044690F83D001F4616460D4620284CD138
:10103000C5B1BEB194F83C00012846D0012084F827
:101040003C004FF00008C4F84080212084F83D00A7
:10105000FFF7A8F9A6848146E684A068B0F5805F12
:1010600003D004E00120BDE8F883206928B12E46B2
:101070005FF0000584F83C800EE00026FAE780214E
:10108000204600F047FAA0B9AEB116F8010B21686E
:101090004860E08C401EE084E08C4B464FF000023C
:1010A00000970028EBD14FF04001204600F032FAC3
:1010B00030B10320D7E735F8020BC0F30800E6E7AC
:1010C000202084F83D000020CDE70220CBE7FEE79A
:1010D0000D4808B5816941F010018161816901F015
:1010E00010010091816941F020018161816901F065
:1010F00020010091816941F004018161806900F063
:101100000400009008BD0000001002401CB5002142
:101110001A480191184A009102604A1EC0E9012153
:10112000FFF7C0FD08B1FFF739F823208DF8040060
:1011300020208DF8050010208DF80600012201A95D
:101140000E48FFF77BFE08B1FFF728F804208DF862
:10115000000011208DF8010003208DF802002220EC
:101160008DF80300012269460448FFF705FE0028B8
:1011700001D0FFF713F81CBD002800401400002028
:101180000C4810B50A4901604FF4E131416000217B
:1011900081600C22C160C0E904128161C161FFF766
:1011A000D4FE002803D0BDE81040FEF7F7BF10BD05
:1011B0000038014028000020FEE7FEE770470109E3
:1011C00001EB810100F00F0000EB4100C0B270475D
:1011D000002102E00A38C0B2491C0A28FAD20907E5
:1011E00040EA116070472DE9F04104460025C07BBC
:1011F000627BA37B42E0012A16D0032A14D0052A81
:1012000012D0072A10D0082A0ED00A2A0CD00C2A95
:101210000AD0042A10D0062A0ED0092A0CD00B2A94
:101220000AD0022A0DD028E01F2B0CD30C2A05D19E
:1012300001221346401C20E01E2B04D30123521C24
:101240001BE01C2B02D203F1010316E011D183B283
:101250009E0710D16426B3FBF6F706FB173636B9A6
:101260004FF4C876B3FBF6F706FB17331BB91D2303
:1012700003E01D2B01D1032201236D1C8D42BAD343
:10128000D1B2E0736173DAB2A27300F04FF8207349
:10129000BDE8F08170B50446FFF784F805464FF4C9
:1012A0007A7606E0FFF77EF8401BB04201D90320B2
:1012B00070BD206840688006F4D52068416841F020
:1012C00010014160002070BD70B50446006841689F
:1012D00021F010014160FFF765F805464FF47A767A
:1012E00007E000BFFFF75EF8401BB04201D90320C2
:1012F00070BD206840688006F4D5002070BD01688C
:10130000086A496A89B241EA004070470068816909
:101310008AB2C1698BB2816989B28A4203D0C0693D
:1013200061F31F40704743EA02407047F0B5642400
:10133000C1EBC1030927A500072603EB011303290D
:10134000B3FBF7F100F5FA60114401440AD2401EE4
:10135000B0FBF4F201EB9001B0FBF5F0891A084400
:10136000001D08E0B0FBF4F201EB9001B0FBF5F0DA
:10137000891A0844801CB0FBF6F106FB1100C0B2CC
:10138000F0BD70B50D4606460024FFF783FF48B94F
:101390003168280C08623168A8B248623046FFF70D
:1013A00093FF00B10124204670BD70B50D4606467E
:1013B0000024FFF76FFF48B93168280C8861316855
:1013C000A8B2C8613046FFF77FFF00B10124204674
:1013D00070BD7047FEF7ECBF70B594B02821684629
:1013E000FEF7A7FE14210AA8FEF7A3FE002501249C
:1013F0000F951195052012950090CDE90254109596
:101400004FF48030019002260494CDE907604FF438
:10141000E01009906846FFF721FA08B172B6FEE7BE
:101420000F20CDE90A064FF48060CDE90C5002216F
:101430000AA80E95FFF726F908B172B6FEE74FF439
:101440008070CDE90F400FA8FFF7A6F8002801D063
:1014500072B6FEE714B070BD7047000070B5044668
:1014600000680169E26821F440511143016121697A
:10147000A0680843616908432168CA6841F20C63A7
:101480009A430243CA6020684169A26921F440710D
:10149000114341611E492068884202D1FFF798F943
:1014A00001E0FFF785F900EBC00101EB0012606875
:1014B00064218000B2FBF0F3B3FBF1F36FF0180688
:1014C0007343B2FBF0F5B2FBF0F605EB8305322374
:1014D00003EB0515B5FBF1F5B6FBF1F605F0F005EC
:1014E00005EB0615B2FBF0F6B2FBF0F0B0FBF1F045
:1014F0006FF01802504306EB800003EB0010B0FBC6
:10150000F1F0216800F00F002844886070BD0000F1
:10151000003801402DE9F041984617460E46044632
:10152000069D1DE0681C1BD02DB1FEF73BFFA0EB14
:101530000800A84214D92068C16821F4D071C160A4
:101540002068416921F001014161202084F83D00BB
:1015500084F83E00002084F83C000320BDE8F081C0
:101560002068006836EA000004D00020B842D9D0D4
:101570000020F3E70120F9E7FEE700000FB4054B78
:1015800010B503A9044A029800F028F810BC5DF8D1
:1015900014FB000021190008100000200907090EA3
:1015A000002804DB00F1E02080F80014704700F010
:1015B0000F0000F1E02080F8141D704702E008C819
:1015C000121F08C1002AFAD170477047002001E0BD
:1015D00001C1121F002AFBD1704700002DE9FF4F07
:1015E0008BB088460546002606E025280BD0DDE9AD
:1015F0000D1290476D1C761C28780028F5D10FB08D
:101600003046BDE8F08F0024A146A2460122AE4933
:1016100000E0044315F8013F203B02FA03F00842C2
:10162000F7D128782A2810D06FF02F022878A0F15F
:101630003001092915D809EB890102EB410144F079
:10164000020400EB01096D1CF0E758F8041B5FEA87
:10165000010903D544F40054C9F1000944F002041F
:101660006D1C28782E2817D115F8010F44F00404BA
:101670002A280ED06FF02F022878A0F13001092916
:101680000AD80AEB8A0102EB410100EB010A6D1C4A
:10169000F2E758F804AB6D1C28786C280FD006DCF4
:1016A0004C2817D068280DD06A2814D104E074287B
:1016B00010D07A280FD10DE044F400140AE044F46D
:1016C000801401E044F440146978814202D104F5A9
:1016D00080146D1C6D1C2878692865D006DC0028F4
:1016E0008DD0632827D0642806D15DE06E2808D00D
:1016F00073282AD0752877D0DDE90D129047761C23
:10170000E0E0C4F30250022809D003280DD0D8F835
:10171000001004280DD00E6008F10408D2E0D8F8BB
:101720000010F217C1E90062F6E7D8F800100E8049
:10173000F2E70E70F0E718F8041B8DF80010002097
:101740008DF80100EB46012003E058F804BB4FF090
:10175000FF3061074FF0000701D40AE07F1C5745B6
:101760000DDA8742FADB1BF807100029F6D106E0F4
:101770007F1C8742FCDB1BF807100029F8D1DDE94C
:101780000D23A9EB07008146214600F0B1F8304453
:10179000C61904E0DDE90D121BF8010B90477F1E0E
:1017A000F8D22146484688E058F8040BC4F30251A9
:1017B0004FF00A0B032900D100B2042900D140B236
:1017C000002802DA40422D2102E0210505D52B2117
:1017D0008DF82410012104E006E0E10710D020215B
:1017E000F6E708AF089113E058F8040BC4F3025170
:1017F0004FF00A0B032900D180B2042900D1C0B2F6
:101800000021EEE75946FEF79FFC303107F8011D35
:101810000028F7D1ADEB070000F1200B600702D5DF
:1018200024F4803401E04FF0010ADA4502DDAAEB2E
:101830000B0000E00020824600EB0B0108980144F9
:10184000A9EB01000A90E00306D4DDE90D2321464F
:101850000A9800F04DF806444FF0000908E009A985
:1018600011F80900DDE90D12904709F10109761C14
:1018700008998945F3DBE0030CD5DDE90D2321460A
:101880000A9800F035F8064404E0DDE90D12302036
:101890009047761CBAF10001AAF1010AF5DC05E0D7
:1018A000DDE90D1217F8010B9047761CBBF1000122
:1018B000ABF1010BF4DC0A982146DDE90D2300F0C1
:1018C00005F806446D1C97E6092801002DE9F04152
:1018D000044600251E461746880404D405E0394610
:1018E0002020B0476D1C641EF9D52846BDE8F08164
:1018F0002DE9F041044600251E469046C80301D557
:10190000302700E02027880404D505E0414638460A
:10191000B0476D1C641EF9D52846BDE8F081000073
:1019200038B504468DF800000223012269460248BA
:10193000FFF774FB204638BD280000201CB5FEF7D9
:101940003FFDFFF749FDFFF7C3FBFFF7DFFBFFF7A5
:1019500017FC4FF47A74002201A92148FFF735F9EA
:10196000002269461E48FFF709F99DF803109DF80B
:1019700002309DF801201BA001F5FA61FFF7FEFD82
:101980009DF806309DF805209DF804101AA0FFF779
:10199000F5FD9DF8001001290CD002290CD0032977
:1019A0000CD004290CD005290CD006290CD007290D
:1019B0000CD00EE015A00AE017A008E019A006E080
:1019C0001BA004E01DA002E01FA000E021A0FFF783
:1019D000D5FD23A0FFF7D2FD2046FEF7E1FBBAE7D5
:1019E00014000020253032642F253032642F25303A
:1019F00032640D0A00000000253032643A2530328E
:101A0000643A253032640D0A00000000D0C7C6DAFF
:101A1000D2BB0D0A00000000D0C7C6DAB6FE0D0A20
:101A200000000000D0C7C6DAC8FD0D0A00000000A3
:101A3000D0C7C6DACBC40D0A00000000D0C7C6DA92
:101A4000CEE50D0A00000000D0C7C6DAC1F90D0AC4
:101A500000000000D0C7C6DAC8D50D0A000000009B
:101A60000D0A000000000000000000000102030455
:101A70000607080900000000010203049C1A000880
:101A80000000002014000000BC150008B01A000877
:101A9000140000205C040000CC15000801000000C8
:101AA00010000000000000000024F400000000000E
:04000005080000ED02
:00000001FF
